{
  "contractName": "SecureAggregation",
  "abi": [
    {
      "inputs": [],
      "stateMutability": "nonpayable",
      "type": "constructor"
    },
    {
      "anonymous": false,
      "inputs": [
        {
          "indexed": true,
          "internalType": "address",
          "name": "client",
          "type": "address"
        },
        {
          "indexed": false,
          "internalType": "uint256",
          "name": "newAccuracy",
          "type": "uint256"
        }
      ],
      "name": "AccuracyUpdated",
      "type": "event"
    },
    {
      "anonymous": false,
      "inputs": [
        {
          "indexed": true,
          "internalType": "address",
          "name": "client",
          "type": "address"
        },
        {
          "indexed": false,
          "internalType": "uint256",
          "name": "penaltyCount",
          "type": "uint256"
        }
      ],
      "name": "MaliciousClientPenalized",
      "type": "event"
    },
    {
      "anonymous": false,
      "inputs": [
        {
          "indexed": true,
          "internalType": "address",
          "name": "client",
          "type": "address"
        },
        {
          "indexed": false,
          "internalType": "bytes32",
          "name": "qhash",
          "type": "bytes32"
        }
      ],
      "name": "QhashSubmitted",
      "type": "event"
    },
    {
      "anonymous": false,
      "inputs": [
        {
          "indexed": true,
          "internalType": "address",
          "name": "client",
          "type": "address"
        },
        {
          "indexed": false,
          "internalType": "uint256",
          "name": "newScore",
          "type": "uint256"
        }
      ],
      "name": "ReputationUpdated",
      "type": "event"
    },
    {
      "anonymous": false,
      "inputs": [
        {
          "indexed": true,
          "internalType": "address",
          "name": "client",
          "type": "address"
        },
        {
          "indexed": false,
          "internalType": "uint256",
          "name": "newStakedAmount",
          "type": "uint256"
        }
      ],
      "name": "StakedTokensUpdated",
      "type": "event"
    },
    {
      "inputs": [
        {
          "internalType": "address",
          "name": "",
          "type": "address"
        }
      ],
      "name": "bannedClients",
      "outputs": [
        {
          "internalType": "bool",
          "name": "",
          "type": "bool"
        }
      ],
      "stateMutability": "view",
      "type": "function",
      "constant": true
    },
    {
      "inputs": [
        {
          "internalType": "address",
          "name": "",
          "type": "address"
        }
      ],
      "name": "lastAccuracy",
      "outputs": [
        {
          "internalType": "uint256",
          "name": "",
          "type": "uint256"
        }
      ],
      "stateMutability": "view",
      "type": "function",
      "constant": true
    },
    {
      "inputs": [],
      "name": "owner",
      "outputs": [
        {
          "internalType": "address",
          "name": "",
          "type": "address"
        }
      ],
      "stateMutability": "view",
      "type": "function",
      "constant": true
    },
    {
      "inputs": [
        {
          "internalType": "address",
          "name": "",
          "type": "address"
        }
      ],
      "name": "penalties",
      "outputs": [
        {
          "internalType": "uint256",
          "name": "",
          "type": "uint256"
        }
      ],
      "stateMutability": "view",
      "type": "function",
      "constant": true
    },
    {
      "inputs": [
        {
          "internalType": "address",
          "name": "",
          "type": "address"
        }
      ],
      "name": "reputationScores",
      "outputs": [
        {
          "internalType": "uint256",
          "name": "",
          "type": "uint256"
        }
      ],
      "stateMutability": "view",
      "type": "function",
      "constant": true
    },
    {
      "inputs": [
        {
          "internalType": "address",
          "name": "",
          "type": "address"
        }
      ],
      "name": "stakedTokens",
      "outputs": [
        {
          "internalType": "uint256",
          "name": "",
          "type": "uint256"
        }
      ],
      "stateMutability": "view",
      "type": "function",
      "constant": true
    },
    {
      "inputs": [
        {
          "internalType": "bytes32",
          "name": "",
          "type": "bytes32"
        }
      ],
      "name": "validQhashes",
      "outputs": [
        {
          "internalType": "bool",
          "name": "",
          "type": "bool"
        }
      ],
      "stateMutability": "view",
      "type": "function",
      "constant": true
    },
    {
      "inputs": [
        {
          "internalType": "bytes32[]",
          "name": "qhashes",
          "type": "bytes32[]"
        },
        {
          "internalType": "address",
          "name": "client",
          "type": "address"
        }
      ],
      "name": "submitBatch",
      "outputs": [],
      "stateMutability": "nonpayable",
      "type": "function"
    },
    {
      "inputs": [
        {
          "internalType": "address",
          "name": "client",
          "type": "address"
        },
        {
          "internalType": "bool",
          "name": "validUpdate",
          "type": "bool"
        }
      ],
      "name": "updateReputation",
      "outputs": [],
      "stateMutability": "nonpayable",
      "type": "function"
    },
    {
      "inputs": [
        {
          "internalType": "address",
          "name": "client",
          "type": "address"
        }
      ],
      "name": "checkReputation",
      "outputs": [
        {
          "internalType": "bool",
          "name": "",
          "type": "bool"
        }
      ],
      "stateMutability": "view",
      "type": "function",
      "constant": true
    },
    {
      "inputs": [
        {
          "internalType": "bytes32",
          "name": "qhash",
          "type": "bytes32"
        },
        {
          "internalType": "address",
          "name": "sender",
          "type": "address"
        },
        {
          "internalType": "uint256",
          "name": "newAccuracy",
          "type": "uint256"
        }
      ],
      "name": "validateAndStoreQhash",
      "outputs": [],
      "stateMutability": "nonpayable",
      "type": "function"
    },
    {
      "inputs": [
        {
          "internalType": "address",
          "name": "client",
          "type": "address"
        }
      ],
      "name": "penalizeMaliciousClient",
      "outputs": [],
      "stateMutability": "nonpayable",
      "type": "function"
    },
    {
      "inputs": [
        {
          "internalType": "address",
          "name": "client",
          "type": "address"
        },
        {
          "internalType": "uint256",
          "name": "amount",
          "type": "uint256"
        }
      ],
      "name": "stakeTokens",
      "outputs": [],
      "stateMutability": "nonpayable",
      "type": "function"
    }
  ],
  "bytecode": "0x608060405234801561001057600080fd5b50600080546001600160a01b03191633179055610a2c806100326000396000f3fe608060405234801561001057600080fd5b50600436106100cf5760003560e01c80638da5cb5b1161008c578063a5b39cfb11610066578063a5b39cfb14610200578063a8c184b214610220578063e2c13e3214610243578063fe0438b21461025657600080fd5b80638da5cb5b146101af578063971928f3146101da578063a3cfffe0146101ed57600080fd5b8063014ab313146100d457806309908c971461011657806324237c251461012b57806331e8d9a61461015957806379a83f5a14610179578063859d58ed1461018c575b600080fd5b6101016100e2366004610788565b6001600160a01b031660009081526002602052604090205460ff161590565b60405190151581526020015b60405180910390f35b6101296101243660046107c0565b610276565b005b61014b610139366004610788565b60046020526000908152604090205481565b60405190815260200161010d565b61014b610167366004610788565b60056020526000908152604090205481565b610129610187366004610890565b6103b9565b61010161019a366004610788565b60026020526000908152604090205460ff1681565b6000546101c2906001600160a01b031681565b6040516001600160a01b03909116815260200161010d565b6101296101e8366004610788565b610462565b6101296101fb3660046108ba565b61057d565b61014b61020e366004610788565b60066020526000908152604090205481565b61010161022e3660046108ef565b60036020526000908152604090205460ff1681565b610129610251366004610908565b61064d565b61014b610264366004610788565b60016020526000908152604090205481565b6001600160a01b03811660009081526002602052604090205460ff16156102f55760405162461bcd60e51b815260206004820152602860248201527f436c69656e742069732062616e6e65642066726f6d207375626d697474696e67604482015267207570646174657360c01b60648201526084015b60405180910390fd5b60005b82518110156103b45760016003600085848151811061031957610319610944565b6020026020010151815260200190815260200160002060006101000a81548160ff021916908315150217905550816001600160a01b03167f977be63b3ae63d541022dfbb5a35494807011d7d9b757bb112c70ea28055562584838151811061038357610383610944565b602002602001015160405161039a91815260200190565b60405180910390a2806103ac81610970565b9150506102f8565b505050565b6000546001600160a01b031633146103e35760405162461bcd60e51b81526004016102ec90610989565b6001600160a01b0382166000908152600660205260408120805483929061040b9084906109ca565b90915550506001600160a01b0382166000818152600660209081526040918290205491519182527f60c508a464e57b4476b7e9a6dc4c8dbdb37ec039351151c58b721c6d04423bc691015b60405180910390a25050565b6000546001600160a01b0316331461048c5760405162461bcd60e51b81526004016102ec90610989565b6001600160a01b03811660009081526005602052604081208054600192906104b59084906109ca565b90915550506001600160a01b03811660009081526006602052604081208054600a92906104e39084906109e3565b90915550506001600160a01b0381166000908152600560205260409020546003101561052d576001600160a01b0381166000908152600260205260409020805460ff191660011790555b6001600160a01b0381166000818152600560209081526040918290205491519182527f1541cccb82036047e2055b5fe002669ba2b51c511cd0aef167b182d92a74fa14910160405180910390a250565b6001600160a01b0382166000908152600460205260409020548110156105e55760405162461bcd60e51b815260206004820152601a60248201527f4163637572616379206d757374206e6f7420646563726561736500000000000060448201526064016102ec565b6000838152600360209081526040808320805460ff191660011790556001600160a01b0385168084526004835292819020849055518381527f16d0848e499fa9fd0f755c0563c69a05617a0663a704dabd1933f6f75fa3f219910160405180910390a2505050565b6000546001600160a01b031633146106775760405162461bcd60e51b81526004016102ec90610989565b80156106b3576001600160a01b038216600090815260016020819052604082208054919290916106a89084906109ca565b909155506107229050565b6001600160a01b03821660009081526001602052604081208054600292906106dc9084906109e3565b90915550506001600160a01b038216600090815260016020526040902054610722576001600160a01b0382166000908152600260205260409020805460ff191660011790555b6001600160a01b0382166000818152600160209081526040918290205491519182527ffc577563f1b9a0461e24abef1e1fcc0d33d3d881f20b5df6dda59de4aae2c8219101610456565b80356001600160a01b038116811461078357600080fd5b919050565b60006020828403121561079a57600080fd5b6107a38261076c565b9392505050565b634e487b7160e01b600052604160045260246000fd5b600080604083850312156107d357600080fd5b823567ffffffffffffffff808211156107eb57600080fd5b818501915085601f8301126107ff57600080fd5b8135602082821115610813576108136107aa565b8160051b604051601f19603f83011681018181108682111715610838576108386107aa565b60405292835281830193508481018201928984111561085657600080fd5b948201945b838610156108745785358552948201949382019361085b565b9650610883905087820161076c565b9450505050509250929050565b600080604083850312156108a357600080fd5b6108ac8361076c565b946020939093013593505050565b6000806000606084860312156108cf57600080fd5b833592506108df6020850161076c565b9150604084013590509250925092565b60006020828403121561090157600080fd5b5035919050565b6000806040838503121561091b57600080fd5b6109248361076c565b91506020830135801515811461093957600080fd5b809150509250929050565b634e487b7160e01b600052603260045260246000fd5b634e487b7160e01b600052601160045260246000fd5b6000600182016109825761098261095a565b5060010190565b60208082526021908201527f4f6e6c79206f776e65722063616e2063616c6c20746869732066756e6374696f6040820152603760f91b606082015260800190565b808201808211156109dd576109dd61095a565b92915050565b818103818111156109dd576109dd61095a56fea2646970667358221220e0af6a0c24e21006235dac549030c8c3bce15fe963aa7127251d62aa1e4765f864736f6c63430008150033",
  "immutableReferences": {},
  "source": "// SPDX-License-Identifier: MIT\r\npragma solidity ^0.8.0;\r\n\r\ncontract SecureAggregation {\r\n    address public owner;\r\n    mapping(address => uint256) public reputationScores;\r\n    mapping(address => bool) public bannedClients;\r\n    mapping(bytes32 => bool) public validQhashes;\r\n    mapping(address => uint256) public lastAccuracy;\r\n    mapping(address => uint256) public penalties;\r\n    mapping(address => uint256) public stakedTokens;\r\n\r\n    event QhashSubmitted(address indexed client, bytes32 qhash);\r\n    event ReputationUpdated(address indexed client, uint256 newScore);\r\n    event MaliciousClientPenalized(address indexed client, uint256 penaltyCount);\r\n    event AccuracyUpdated(address indexed client, uint256 newAccuracy);\r\n    event StakedTokensUpdated(address indexed client, uint256 newStakedAmount);\r\n\r\n    modifier onlyOwner() {\r\n        require(msg.sender == owner, \"Only owner can call this function\");\r\n        _;\r\n    }\r\n\r\n    constructor() {\r\n        owner = msg.sender;\r\n    }\r\n\r\n    function submitBatch(bytes32[] memory qhashes, address client) public {\r\n        require(!bannedClients[client], \"Client is banned from submitting updates\");\r\n        \r\n        for (uint256 i = 0; i < qhashes.length; i++) {\r\n            validQhashes[qhashes[i]] = true;\r\n            emit QhashSubmitted(client, qhashes[i]);\r\n        }\r\n    }\r\n\r\n    function updateReputation(address client, bool validUpdate) public onlyOwner {\r\n        if (validUpdate) {\r\n            reputationScores[client] += 1;\r\n        } else {\r\n            reputationScores[client] -= 2;\r\n            if (reputationScores[client] <= 0) {\r\n                bannedClients[client] = true;\r\n            }\r\n        }\r\n        emit ReputationUpdated(client, reputationScores[client]);\r\n    }\r\n\r\n    function checkReputation(address client) public view returns (bool) {\r\n        return !bannedClients[client];\r\n    }\r\n\r\n    function validateAndStoreQhash(bytes32 qhash, address sender, uint256 newAccuracy) public {\r\n        require(newAccuracy >= lastAccuracy[sender], \"Accuracy must not decrease\");\r\n        validQhashes[qhash] = true;\r\n        lastAccuracy[sender] = newAccuracy;\r\n        emit AccuracyUpdated(sender, newAccuracy);\r\n    }\r\n\r\n    function penalizeMaliciousClient(address client) public onlyOwner {\r\n        penalties[client] += 1;\r\n        stakedTokens[client] -= 10;\r\n        if (penalties[client] > 3) {\r\n            bannedClients[client] = true;\r\n        }\r\n        emit MaliciousClientPenalized(client, penalties[client]);\r\n    }\r\n\r\n    function stakeTokens(address client, uint256 amount) public onlyOwner {\r\n        stakedTokens[client] += amount;\r\n        emit StakedTokensUpdated(client, stakedTokens[client]);\r\n    }\r\n}\r\n",
  "sourcePath": "c:\\Users\\kostas bekis\\Downloads\\contracts\\SecureAggregation.sol",
  "compiler": {
    "name": "solc",
    "version": "0.8.21+commit.d9974bed.Emscripten.clang"
  },
  "schemaVersion": "3.4.16",
  "updatedAt": "2025-02-15T15:33:23.444Z",
  "networkType": "ethereum",
  "devdoc": {
    "kind": "dev",
    "methods": {},
    "version": 1
  },
  "userdoc": {
    "kind": "user",
    "methods": {},
    "version": 1
  }
}